8=FIX.4.4|9=80|35=A|34=1|49=EXEC_SERVER|52=20260401-16:31:13.589|56=MINIFIX_CLIENT|98=0|108=30|10=143|8=FIX.4.4|9=172|35=8|34=2|49=EXEC_SERVER|52=20260401-16:31:23.176|56=MINIFIX_CLIENT|6=0|11=1174880588|14=0|17=EXEC_1775061083173|37=ORD_7f12de69|39=0|40=2|44=50|54=2|55=GOOG|150=0|151=100|10=129|8=FIX.4.4|9=172|35=8|34=3|49=EXEC_SERVER|52=20260401-16:31:31.731|56=MINIFIX_CLIENT|6=0|11=1174880589|14=0|17=EXEC_1775061091731|37=ORD_7fba3003|39=0|40=2|44=51|54=2|55=GOOG|150=0|151=100|10=109|8=FIX.4.4|9=188|35=8|34=4|49=EXEC_SERVER|52=20260401-16:31:58.459|56=MINIFIX_CLIENT|6=50.33333333333334|11=1174880590|14=150|17=EXEC_1775061118459|37=ORD_278ed6f7|39=1|40=2|44=52|54=1|55=GOOG|150=1|151=0|10=208|8=FIX.4.4|9=185|35=8|34=5|49=EXEC_SERVER|52=20260401-16:31:58.474|56=MINIFIX_CLIENT|6=50|11=1174880590|14=150|17=EXEC_950527f9_BUY|31=50|32=100|37=ORD_278ed6f7|39=2|40=2|44=52|54=1|55=GOOG|150=F|151=0|10=166|8=FIX.4.4|9=186|35=8|34=6|49=EXEC_SERVER|52=20260401-16:31:58.477|56=MINIFIX_CLIENT|6=50|11=1174880588|14=100|17=EXEC_950527f9_SELL|31=50|32=100|37=ORD_7f12de69|39=2|40=2|44=50|54=2|55=GOOG|150=F|151=0|10=231|8=FIX.4.4|9=184|35=8|34=7|49=EXEC_SERVER|52=20260401-16:31:58.486|56=MINIFIX_CLIENT|6=51|11=1174880590|14=150|17=EXEC_de04df44_BUY|31=51|32=50|37=ORD_278ed6f7|39=2|40=2|44=52|54=1|55=GOOG|150=F|151=0|10=004|8=FIX.4.4|9=185|35=8|34=8|49=EXEC_SERVER|52=20260401-16:31:58.488|56=MINIFIX_CLIENT|6=51|11=1174880589|14=50|17=EXEC_de04df44_SELL|31=51|32=50|37=ORD_7fba3003|39=1|40=2|44=51|54=2|55=GOOG|150=F|151=50|10=060|8=FIX.4.4|9=68|35=0|34=9|49=EXEC_SERVER|52=20260401-16:32:29.169|56=MINIFIX_CLIENT|10=117|8=FIX.4.4|9=69|35=0|34=10|49=EXEC_SERVER|52=20260401-16:32:59.169|56=MINIFIX_CLIENT|10=161|8=FIX.4.4|9=69|35=0|34=11|49=EXEC_SERVER|52=20260401-16:33:29.178|56=MINIFIX_CLIENT|10=160|8=FIX.4.4|9=69|35=0|34=12|49=EXEC_SERVER|52=20260401-16:34:00.173|56=MINIFIX_CLIENT|10=146|8=FIX.4.4|9=69|35=0|34=13|49=EXEC_SERVER|52=20260401-16:34:30.168|56=MINIFIX_CLIENT|10=154|8=FIX.4.4|9=69|35=0|34=14|49=EXEC_SERVER|52=20260401-16:35:00.169|56=MINIFIX_CLIENT|10=154|8=FIX.4.4|9=69|35=0|34=15|49=EXEC_SERVER|52=20260401-16:35:30.168|56=MINIFIX_CLIENT|10=157|8=FIX.4.4|9=69|35=0|34=16|49=EXEC_SERVER|52=20260401-16:36:00.164|56=MINIFIX_CLIENT|10=152|8=FIX.4.4|9=119|35=5|34=17|49=EXEC_SERVER|52=20260401-16:38:59.249|56=MINIFIX_CLIENT|58=MsgSeqNum too low, expecting 15 but received 1|10=169|8=FIX.4.4|9=81|35=A|34=18|49=EXEC_SERVER|52=20260401-16:39:00.624|56=MINIFIX_CLIENT|98=0|108=30|10=194|8=FIX.4.4|9=173|35=8|34=19|49=EXEC_SERVER|52=20260401-16:39:30.147|56=MINIFIX_CLIENT|6=0|11=1174880591|14=0|17=EXEC_1775061570145|37=ORD_fcb6462a|39=0|40=2|44=50|54=2|55=GOOG|150=0|151=100|10=222|8=FIX.4.4|9=173|35=8|34=20|49=EXEC_SERVER|52=20260401-16:39:35.927|56=MINIFIX_CLIENT|6=0|11=1174880592|14=0|17=EXEC_1775061575927|37=ORD_f3b39da2|39=0|40=2|44=51|54=2|55=GOOG|150=0|151=100|10=240|8=FIX.4.4|9=69|35=0|34=21|49=EXEC_SERVER|52=20260401-16:40:06.131|56=MINIFIX_CLIENT|10=143|8=FIX.4.4|9=119|35=5|34=22|49=EXEC_SERVER|52=20260401-16:41:35.029|56=MINIFIX_CLIENT|58=MsgSeqNum too low, expecting 20 but received 1|10=145|8=FIX.4.4|9=81|35=A|34=23|49=EXEC_SERVER|52=20260401-16:41:36.603|56=MINIFIX_CLIENT|98=0|108=30|10=189|8=FIX.4.4|9=171|35=8|34=24|49=EXEC_SERVER|52=20260401-16:42:02.004|56=MINIFIX_CLIENT|6=0|11=16260719|14=0|17=EXEC_1775061722001|37=ORD_4224fc38|39=0|40=2|44=50|54=2|55=GOOG|150=0|151=100|10=245|8=FIX.4.4|9=171|35=8|34=25|49=EXEC_SERVER|52=20260401-16:42:07.394|56=MINIFIX_CLIENT|6=0|11=16260720|14=0|17=EXEC_1775061727394|37=ORD_3361da7a|39=0|40=2|44=51|54=2|55=GOOG|150=0|151=100|10=062|8=FIX.4.4|9=187|35=8|34=26|49=EXEC_SERVER|52=20260401-16:42:20.870|56=MINIFIX_CLIENT|6=50.33333333333334|11=16260721|14=150|17=EXEC_1775061740869|37=ORD_3f9aad99|39=1|40=2|44=52|54=1|55=GOOG|150=1|151=0|10=184|8=FIX.4.4|9=184|35=8|34=27|49=EXEC_SERVER|52=20260401-16:42:20.871|56=MINIFIX_CLIENT|6=50|11=16260721|14=150|17=EXEC_ef64d4a1_BUY|31=50|32=100|37=ORD_3f9aad99|39=2|40=2|44=52|54=1|55=GOOG|150=F|151=0|10=016|8=FIX.4.4|9=185|35=8|34=28|49=EXEC_SERVER|52=20260401-16:42:20.874|56=MINIFIX_CLIENT|6=50|11=16260719|14=100|17=EXEC_ef64d4a1_SELL|31=50|32=100|37=ORD_4224fc38|39=2|40=2|44=50|54=2|55=GOOG|150=F|151=0|10=236|8=FIX.4.4|9=183|35=8|34=29|49=EXEC_SERVER|52=20260401-16:42:20.885|56=MINIFIX_CLIENT|6=51|11=16260721|14=150|17=EXEC_188d8bec_BUY|31=51|32=50|37=ORD_3f9aad99|39=2|40=2|44=52|54=1|55=GOOG|150=F|151=0|10=244|8=FIX.4.4|9=184|35=8|34=30|49=EXEC_SERVER|52=20260401-16:42:20.887|56=MINIFIX_CLIENT|6=51|11=16260720|14=50|17=EXEC_188d8bec_SELL|31=51|32=50|37=ORD_3361da7a|39=1|40=2|44=51|54=2|55=GOOG|150=F|151=50|10=241|8=FIX.4.4|9=69|35=0|34=31|49=EXEC_SERVER|52=20260401-16:42:50.885|56=MINIFIX_CLIENT|10=161|8=FIX.4.4|9=69|35=0|34=32|49=EXEC_SERVER|52=20260401-16:43:20.879|56=MINIFIX_CLIENT|10=163|8=FIX.4.4|9=69|35=0|34=33|49=EXEC_SERVER|52=20260401-16:43:50.874|56=MINIFIX_CLIENT|10=162|8=FIX.4.4|9=69|35=0|34=34|49=EXEC_SERVER|52=20260401-16:44:20.880|56=MINIFIX_CLIENT|10=158|8=FIX.4.4|9=69|35=0|34=35|49=EXEC_SERVER|52=20260401-16:44:50.884|56=MINIFIX_CLIENT|10=166|8=FIX.4.4|9=69|35=0|34=36|49=EXEC_SERVER|52=20260401-16:45:20.879|56=MINIFIX_CLIENT|10=169|8=FIX.4.4|9=69|35=0|34=37|49=EXEC_SERVER|52=20260401-16:45:50.885|56=MINIFIX_CLIENT|10=170|